:100000000C9434000C943E000C943E000C943E0082
:100010000C943E000C943E000C943E000C943E0068
:100020000C943E000C943E000C943E000C943E0058
:100030000C943E000C943E000C943E000C943E0048
:100040000C943E000C943E000C943E000C943E0038
:100050000C943E000C943E000C943E000C943E0028
:100060000C943E000C943E0011241FBECFEFD8E04C
:10007000DEBFCDBF0E9453000C945E000C940000C4
:1000800007C0EFEFFEE03197F1F700C000000197E5
:100090000097B9F708958CE384B915B808958C706A
:1000A000992785B908950E944B0083B124E0829F6F
:1000B000C00111248C70992785B9F7CFF894FFCF30
:00000001FF
